:020000040800F2
:1000000000000120991900080D19000813190008B3
:10001000191900081F190008251900080000000020
:100020000000000000000000000000002B19000884
:100030003919000800000000471900085519000888
:10004000E9190008E9190008E9190008E919000888
:10005000E9190008E9190008E9190008E919000878
:10006000E9190008E9190008E9190008E919000868
:10007000E9190008E9190008E9190008E919000858
:1000800061190008E9190008E9190008E9190008D0
:10009000E9190008E9190008E9190008E919000838
:1000A000E9190008E9190008E9190008E919000828
:1000B000E9190008E9190008E9190008E919000818
:1000C000E9190008E9190008E9190008E919000808
:1000D000E9190008E9190008E9190008E9190008F8
:1000E000E9190008E9190008E9190008E9190008E8
:1000F000E9190008E9190008E9190008E9190008D8
:10010000E91900080000000000000000E9190008DB
:10011000E9190008E9190008E9190008E9190008B7
:10012000E9190008E9190008E9190008E9190008A7
:10013000E9190008E91900080000000000000000AB
:10014000E9190008E9190008E91900080000000091
:10015000000000000000000000000000000000009F
:10016000E9190008E9190008E9190008E919000867
:10017000E9190008E9190008E9190008E919000857
:10018000E9190008E919000800000000000000005B
:04019000E919000861
:1001940010B5054C237833B9044B13B10448AFF3BD
:1001A40000800123237010BD100000200000000017
:1001B4001062000808B5034B1BB103490348AFF3B1
:1001C400008008BD00000000140000201062000838
:1001D40080B588B000AF7860396007F10803002269
:1001E4001A605A609A60DA601A615A617B68002268
:1001F4005A607B6800229A607B6800221A617B68DF
:1002040000225A767B68002283F820207B68002233
:10021400DA627B6801229A627B680022DA607B687A
:100224000122DA617B68002283F830207B68042293
:100234005A617B6800221A767B6800225A637868C8
:1002440001F038FC0346002B02D04FF4405318E071
:100254003B68BB600123FB6000237B6106233B6199
:100264000023BB610023FB6107F10803194678688A
:1002740002F076F80346002B02D04FF4A04300E0CE
:10028400012318462037BD4680BD80B584B000AF39
:1002940078600023FB81786801F006FE0346002B9A
:1002A40002D04FF4E0431AE04FF49671786801F0FD
:1002B40047FF0346002B0BD1786802F043F803464E
:1002C400FB81786801F006FF0346002B06D002E0AC
:1002D4004FF4104303E04FF4304300E0FB89184629
:1002E4001037BD4680BD80B584B000AF0346FB80A7
:1002F400FB8840F6FF72934202D100F0BFF825E07C
:10030400FB884FF6FF72934208D100F06BFC034662
:10031400FB81FB89184600F07FFC17E0FB8803F0A3
:100324000103002B0ED0FB8803F07003302B04D1A3
:10033400FB88184600F092FC08E0FB88184600F0A1
:1003440033FA03E0FB88184600F030F900BF103799
:10035400BD4680BD80B487B000AF78607B6823F46D
:10036400FF6323F007033B6100237B610FE07B699C
:100374009B001A467B6813441B68FB60FB68B3F15F
:10038400FF3F01D0002307E07B6901337B617B6978
:10039400B3F5007FEBDB3B6918461C37BD465DF8BF
:1003A400047B704780B58AB000AF78607B68002B0F
:1003B40054D000237B6207F10C027B6A13447A68F1
:1003C400128892B21A807B6A02337B6207F10C02B4
:1003D4007B6A13447A680232128892B21A807B6A6A
:1003E40002337B6207F10C027B6A13447A6804329D
:1003F40012681A607B6A04337B6207F10C027B6A21
:1004040013447A68083212681A607B6A04337B6288
:1004140007F10C027B6A13447A680C3212681A6082
:100424007B6A04337B6207F10C027B6A13447A68AB
:10043400103212681A607B6A04337B6207F10C0283
:100444007B6A13447A68143212681A6007F10C014B
:100454000A231822084805F00FF808E000233B732C
:1004640007F10C010A231822034805F005F800BF20
:100474002837BD4680BD00BF2C000020B0B592B027
:1004840000AF07F1100300221A605A609A60DA6024
:100494001A615A614FF0A133BB634FF000637B6470
:1004A40074E07B6C1B68B3F1FF3F6BD1786CFFF792
:1004B40051FF78637B6B002B64D03B8A01339BB282
:1004C4003B8202F0EDFE00233B641CE03A6C7B6B44
:1004D400D118BB6B00221C46154622462B4602202F
:1004E40002F06EFE034687F82B3097F82B30002B72
:1004F40003D17B6901337B6102E0BB690133BB61DA
:100504003B6C04333B643B6CB3F5006FDEDB02F001
:10051400EDFE0023FB6311E0FA6B7B6B13441B6855
:10052400FB62FB690133FB61FA6ABB6B9A4202D03E
:100534003B6A01333B62FB6B0433FB63FB6BB3F538
:10054400006FE9DB02F0ACFE00233B607B6C7B6058
:100554000123BB6007F10C023B461146184602F02A
:1005640063FF034687F8333097F83330002B04D108
:100574007B8A01339BB27B8202E07B6A01337B621C
:1005840002F0B4FE7B6C03F500637B647B6C064A6B
:10059400934286D907F110031846FFF703FF00BF03
:1005A4004837BD46B0BD00BFFFFF070880B588B01F
:1005B40000AF0346FB8000F04FF907F10803002267
:1005C4001A605A609A60DA601A61FB88184600F073
:1005D4002DF80346FB60FB88184600F05DF80346DF
:1005E4003B61FB88184600F079F803467B61FB8881
:1005F4000B224FF47841184600F0B4F90346BB606F
:10060400FB88184600F08EF8F861FB69002B05D0D2
:1006140007F108031946F86902F0AAFFFB88184697
:1006240000F078FA00BF2037BD4680BD80B483B0A7
:1006340000AF0346FB80FB8803F07003102B01D14D
:10064400002323E0FB8803F07003202B01D1012356
:100654001CE0FB8803F07003302B01D1112315E05B
:10066400FB8803F07003402B01D102230EE0FB88CA
:1006740003F07003502B01D1122307E0FB8803F031
:100684007003602B01D1032300E0002318460C37CC
:10069400BD465DF8047B704780B483B000AF034669
:1006A400FB80FB8803F4C073002B01D100230FE00F
:1006B400FB8803F4C073802B01D1012308E0FB887D
:1006C40003F4C073B3F5807F01D1022300E000235B
:1006D40018460C37BD465DF8047B704780B483B080
:1006E40000AF0346FB80FB8803F4C063002B01D1F9
:1006F400002310E0FB8803F4C063B3F5007F01D14D
:10070400012308E0FB8803F4C063B3F5806F01D1D3
:10071400032300E0002318460C37BD465DF8047B34
:100724007047000080B483B000AF0346FB80FB88B1
:1007340003F00E03022B02D14FF0904323E0FB8819
:1007440003F00E03042B01D1124B1CE0FB8803F0D1
:100754000E03062B01D1104B15E0FB8803F00E03AA
:10076400082B01D10D4B0EE0FB8803F00E030A2B7E
:1007740001D10B4B07E0FB8803F00E030C2B01D1D6
:10078400084B00E0002318460C37BD465DF8047B97
:10079400704700BF0004004800080048000C0048EF
:1007A400001000480014004880B582B000AF034632
:1007B400FB80FB8803F07003102B04D0FB8803F04C
:1007C4007003202B04D1FB88184600F00AF804E0DB
:1007D400FB88184600F033F800BF00BF0837BD4659
:1007E40080BD80B584B000AF0346FB80FB8803F076
:1007F4007003102B02D10123FB7301E00023FB7370
:10080400FB8807224FF47861184600F0ABF80346E2
:10081400BB81FB881846FFF785FFB860BB68002BD7
:1008240005D0FA7BBB891946B86803F017F9FB8831
:10083400184600F06FF900BF1037BD4680BD80B583
:1008440082B000AF0346FB80FB88184600F062F9D3
:1008540000BF0837BD4680BD80B590B000AF49F6F3
:10086400F3714FF0904003F00DF84FF6FF713848E4
:1008740003F008F84DF6FF71364803F003F84FF61D
:10088400FF71354802F0FEFF4FF6FF71334802F066
:10089400F9FF4FF6FF71324802F0F4FF07F12C0321
:1008A40000221A605A609A60DA601A6100233B637E
:1008B40002237B630023BB6349F6F373FB6207F1F6
:1008C4002C0319464FF0904002F052FE07F1180332
:1008D40000221A605A609A60DA601A610023FB6190
:1008E40002233B6200237B624FF6FF73BB613B1D17
:1008F40000221A605A609A60DA601A610023BB60B1
:100904000223FB6000233B614DF6FF737B6007F11C
:10091400180319460E4802F02BFE3B1D19460D48DC
:1009240002F026FE07F1180319460B4802F020FED8
:1009340007F118031946094802F01AFE07F11803D3
:100944001946074802F014FE00BF4037BD4680BD7B
:100954000004004800080048000C0048001000484B
:100964000014004880B483B000AF03463A60FB80B3
:100974000B46BB80FA88BB8813409BB21A463B687F
:1009840042FA03F3012B01D10123BCE0FA88BB88AE
:1009940013409BB21A463B6842FA03F3022B01D17F
:1009A4000223B0E0FA88BB8813409BB21A463B6826
:1009B40042FA03F3032B01D10423A4E0FA88BB8891
:1009C40013409BB21A463B6842FA03F3042B01D14D
:1009D400082398E0FA88BB8813409BB21A463B6808
:1009E40042FA03F3052B01D110238CE0FA88BB886B
:1009F40013409BB21A463B6842FA03F3062B01D11B
:100A0400202380E0FA88BB8813409BB21A463B68D7
:100A140042FA03F3072B01D1402374E0FA88BB8820
:100A240013409BB21A463B6842FA03F3082B01D1E8
:100A3400802368E0FA88BB8813409BB21A463B685F
:100A440042FA03F3092B02D14FF480735BE0FA8876
:100A5400BB8813409BB21A463B6842FA03F30A2B45
:100A640002D14FF400734EE0FA88BB8813409BB266
:100A74001A463B6842FA03F30B2B02D14FF480630E
:100A840041E0FA88BB8813409BB21A463B6842FA9D
:100A940003F30C2B02D14FF4006334E0FA88BB88D3
:100AA40013409BB21A463B6842FA03F30D2B02D162
:100AB4004FF4805327E0FA88BB8813409BB21A4650
:100AC4003B6842FA03F30E2B02D14FF400531AE0B1
:100AD400FA88BB8813409BB21A463B6842FA03F378
:100AE4000F2B02D14FF480430DE0FA88BB881340EA
:100AF4009BB21A463B6842FA03F3102B02D14FF41F
:100B0400004300E0002318460C37BD465DF8047B23
:100B14007047000080B590B000AF0346FB80FB88AF
:100B24001846FFF7FFFDF863FB6B002B4AD0002348
:100B3400BB63FB6B1B68FB61FB6B5B68BB61FB6BA3
:100B44009B687B61FB6BDB683B61FB6B1B69FB6038
:100B5400FB6B5B69BB60FB693B62BB6B0433BB63D0
:100B640007F12002BB6B1344BA691A60BB6B0433F0
:100B7400BB6307F12002BB6B13447A691A60BB6B39
:100B84000433BB6307F12002BB6B13443A691A6058
:100B9400BB6B0433BB6307F12002BB6B1344FA68DD
:100BA4001A60BB6B0433BB6307F12002BB6B1344B5
:100BB400BA681A6007F120010A231822084804F0D1
:100BC4005BFC09E0002387F8203007F120010A23A9
:100BD4001822034804F050FC00BF4037BD4680BDD6
:100BE4002C00002080B594B000AF3B465022002179
:100BF400184605F003FB4FF0A0433B603B46102131
:100C04001846FFF7E5FA3B461846FFF73EFB034656
:100C140018465037BD4680BD80B584B000AF03464A
:100C2400FB8007F10C0302220021184605F0E6FAC6
:100C3400FB88DBB23B73FB881B0A9BB2DBB27B7382
:100C440007F10C010A230222034804F015FC00BF3B
:100C54001037BD4680BD00BF2C00002080B5ACB06D
:100C640000AF0346FB8007F1080350220021184619
:100C740005F0C4FAFB8807224FF478611846FFF7A1
:100C840071FE0346A7F8AC30FB881846FFF74AFD0F
:100C9400C7F8A8004FF6FF73A7F8AE30D7F8A8300E
:100CA400002B00F0E782B7F8AC30202B20D1D7F826
:100CB400A830B94A93421BD1B84BBB6007F1080373
:100CC4000B211846FFF784FAC7F8A400D7F8A4301C
:100CD400012B08D107F108031846FFF7D6FA03469B
:100CE400A7F8AE30C0E2D7F8A430A7F8AE30BBE224
:100CF400B7F8AC30B3F5805F20D1D7F8A830A84A54
:100D040093421BD1A74BBB6007F10803032118468C
:100D1400FFF75EFAC7F8A000D7F8A030012B08D17E
:100D240007F108031846FFF7B0FA0346A7F8AE30F8
:100D34009AE2D7F8A030A7F8AE3095E2B7F8AC3015
:100D4400B3F5006F21D1D7F8A830954A93421CD14E
:100D54004FF0A043BB6007F108030E211846FFF7CC
:100D640037FAC7F89C00D7F89C30012B08D107F15B
:100D740008031846FFF789FA0346A7F8AE3073E272
:100D8400D7F89C30A7F8AE306EE2B7F8AC30042B3D
:100D940020D1D7F8A830824A93421BD17F4BBB6045
:100DA40007F108030C211846FFF712FAC7F8980058
:100DB400D7F89830012B08D107F108031846FFF73C
:100DC40064FA0346A7F8AE304EE2D7F89830A7F895
:100DD400AE3049E2B7F8AC30022B20D1D7F8A830B6
:100DE4006F4A93421BD1704BBB6007F1080301218A
:100DF4001846FFF7EDF9C7F89400D7F89430012BA3
:100E040008D107F108031846FFF73FFA0346A7F88D
:100E1400AE3029E2D7F89430A7F8AE3024E2B7F820
:100E2400AC30B3F5004F20D1D7F8A8305C4A9342D8
:100E34001BD15C4BBB6007F1080305211846FFF783
:100E4400C7F9C7F89000D7F89030012B08D107F103
:100E540008031846FFF719FA0346A7F8AE3003E271
:100E6400D7F89030A7F8AE30FEE1B7F8AC30B3F560
:100E7400804F20D1D7F8A830494A93421BD1494B1F
:100E8400BB6007F1080304211846FFF7A1F9C7F86E
:100E94008C00D7F88C30012B08D107F108031846D1
:100EA400FFF7F3F90346A7F8AE30DDE1D7F88C304D
:100EB400A7F8AE30D8E1B7F8AC30B3F5005F20D175
:100EC400D7F8A830364A93421BD1374BBB6007F1A1
:100ED400080305211846FFF77BF9C7F88800D7F8FF
:100EE4008830012B08D107F108031846FFF7CDF924
:100EF4000346A7F8AE30B7E1D7F88830A7F8AE308C
:100F0400B2E1B7F8AC30102B20D1D7F8A830224A80
:100F140093421BD1214BBB6007F1080305211846FE
:100F2400FFF756F9C7F88400D7F88430012B08D1AD
:100F340007F108031846FFF7A8F90346A7F8AE30EF
:100F440092E1D7F88430A7F8AE308DE1B7F8AC3031
:100F5400802B2BD1D7F8A830B3F1904F26D10F4B6B
:100F6400BB6007F1080304211846FFF731F9C7F8FD
:100F74008000D7F88030012B08D107F10803184608
:100F8400FFF783F90346A7F8AE306DE1D7F8803058
:100F9400A7F8AE3068E100BF000800480001005027
:100FA400000400480005005000040050B7F8AC30BD
:100FB400402B1DD1D7F8A830B3F1904F18D1B14BC5
:100FC400BB6007F1080303211846FFF701F9F8672E
:100FD400FB6F012B08D107F108031846FFF755F9F9
:100FE4000346A7F8AE303FE1FB6FA7F8AE303BE114
:100FF400B7F8AC30202B1DD1D7F8A830B3F1904FFF
:1010040018D1A04BBB6007F1080302211846FFF773
:10101400DFF8B867BB6F012B08D107F10803184646
:10102400FFF733F90346A7F8AE301DE1BB6FA7F80D
:10103400AE3019E1B7F8AC30012B1ED1D7F8A83087
:10104400914A934219D14FF0A043BB6007F10803C2
:1010540006211846FFF7BCF878677B6F012B08D18F
:1010640007F108031846FFF710F90346A7F8AE3056
:10107400FAE07B6FA7F8AE30F6E0B7F8AC30022B9D
:101084001ED1D7F8A830804A934219D14FF0A0431B
:10109400BB6007F1080307211846FFF799F8386782
:1010A4003B6F012B08D107F108031846FFF7EDF851
:1010B4000346A7F8AE30D7E03B6FA7F8AE30D3E0D5
:1010C400B7F8AC30012B1DD1D7F8A8306F4A934242
:1010D40018D16F4BBB6007F108030C211846FFF7CA
:1010E40077F8F866FB6E012B08D107F10803184660
:1010F400FFF7CBF80346A7F8AE30B5E0FB6EA7F8D0
:10110400AE30B1E0B7F8AC30102B1DD1D7F8A83011
:10111400B3F1904F18D15B4BBB6007F10803012179
:101124001846FFF755F8B866BB6E012B08D107F1D6
:1011340008031846FFF7A9F80346A7F8AE3093E072
:10114400BB6EA7F8AE308FE0B7F8AC30022B1ED1DF
:10115400D7F8A830B3F1904F19D14FF0A043BB603A
:1011640007F1080302211846FFF732F878667B6E10
:10117400012B08D107F108031846FFF786F8034648
:10118400A7F8AE3070E07B6EA7F8AE306CE0B7F82D
:10119400AC30012B1ED1D7F8A830B3F1904F19D140
:1011A4004FF0A043BB6007F1080301211846FFF785
:1011B4000FF838663B6E012B08D107F10803184677
:1011C400FFF763F80346A7F8AE304DE03B6EA7F88F
:1011D400AE3049E0B7F8AC30082B1ED1D7F8A830B0
:1011E400294A934219D14FF0A043BB6007F1080389
:1011F40009211846FEF7ECFFF865FB6D012B08D1B9
:1012040007F108031846FFF740F80346A7F8AE3085
:101214002AE0FB6DA7F8AE3026E0B7F8AC30042B1B
:101224001ED1D7F8A830184A934219D14FF0A043E1
:10123400BB6007F1080308211846FEF7C9FFB8652B
:10124400BB6D012B08D107F108031846FFF71DF801
:101254000346A7F8AE3007E0BB6DA7F8AE3003E055
:101264004FF47043A7F8AE30B7F8AE301846FFF726
:10127400D3FC03E04FF47040FFF7CEFC00BFB0375F
:10128400BD4680BD0001005000080048000400482D
:101294000004005080B582B000AF78600B467B80BC
:1012A4007B685B6D1B781B021AB27B685B6D013334
:1012B4001B781BB213431BB29AB20E4B1A800D4B10
:1012C4001B881846FFF70FF8022200210A4804F091
:1012D40095FF02220849094804F017FF084B1B68D0
:1012E4001A68074B1B6822F004021A6000BF083713
:1012F400BD4680BDFA000020F80000202C0000202C
:10130400B400002080B500AF00F06EFB00F01AF8C6
:1013140000F0CCF800F0ACF800F07AF802220649AC
:10132400064804F0F2FE064B1B681A68044B1B685F
:1013340022F004021A60FEE7FA0000202C000020CC
:10134400B400002080B5A6B000AF07F170032822D6
:101354000021184604F052FF07F15C0300221A60D2
:101364005A609A60DA601A613B1D582200211846BF
:1013740004F044FF02233B670123FB671023C7F8F3
:1013840080300223C7F888304FF40043C7F88C300C
:101394004FF4C013C7F890300023C7F8943007F116
:1013A4007003184602F072FB0346002B01D000F0D4
:1013B400C5F80F23FB6502233B6600237B664FF4CD
:1013C4008063BB660023FB6607F15C0302211846B9
:1013D40003F0B0FB0346002B01D000F0AFF84FF44C
:1013E400C1737B6000233B614FF48073FB624FF455
:1013F40000533B633B1D184603F0D2FD0346002B0C
:1014040001D000F09BF800BF9837BD4680BD0000B6
:1014140080B500AF144B154A1A60134B4FF4E132F8
:101424005A60114B00229A600F4B0022DA600E4B77
:1014340000221A610C4B0C225A610B4B00229A6158
:10144400094B0022DA61084B00221A62064B002283
:101454005A62054803F0C2FF0346002B01D000F096
:101464006DF800BF80BD00BF2C0000200044004088
:1014740080B582B000AF0C4B5B690B4A43F00103AB
:101484005361094B5B6903F001037B607B680022B5
:101494000021102001F0ABFC102001F0C4FC00BFBF
:1014A4000837BD4680BD00BF0010024080B487B03D
:1014B40000AF214B5B69204A43F4002353611E4B68
:1014C4005B6903F400237B617B691B4B5B691A4AEC
:1014D40043F400335361184B5B6903F400333B61FD
:1014E4003B69154B5B69144A43F480235361124BE7
:1014F4005B6903F48023FB60FB680F4B5B690E4A56
:1015040043F4801353610C4B5B6903F48013BB6099
:10151400BB68094B5B69084A43F480035361064B7B
:101524005B6903F480037B607B6800BF1C37BD46A6
:101534005DF8047B704700BF0010024080B400AF28
:1015440072B600BFFEE7000080B582B000AF0F4B5B
:101554009B690E4A43F0010393610C4B9B6903F0B2
:1015640001037B607B68094BDB69084A43F08053C5
:10157400D361064BDB6903F080533B603B68072073
:1015840001F02AFC00BF0837BD4680BD00100240B0
:1015940080B594B000AF786007F13C0300221A6074
:1015A4005A609A60DA601A617B681B68B3F1A04FD5
:1015B4005FD1974B1B680133954A1360944B1B68AA
:1015C400012B0BD1934B5B69924A43F080535361D7
:1015D400904B5B6903F08053BB63BB6B8D4B5B69C2
:1015E4008C4A43F4002353618A4B5B6903F4002360
:1015F4007B637B6B874B5B69864A43F4003353619F
:10160400844B5B6903F400333B633B6B814B5B6945
:10161400804A43F4802353617E4B5B6903F4802347
:10162400FB62FB6A0F23FB6303233B6400237B649D
:1016340007F13C031946784801F09AFF0323FB6342
:1016440003233B6400237B6407F13C0319464FF0FA
:10165400904001F08DFF4FF40063FB6303233B6470
:1016640000237B6407F13C0319466C4801F080FFBA
:10167400CAE07B681B686A4A93425ED1644B1B686C
:101684000133634A1360624B1B68012B0BD1614B1E
:101694005B69604A43F0805353615E4B5B6903F0BE
:1016A4008053BB62BB6A5B4B5B695A4A43F40023B9
:1016B4005361584B5B6903F400237B627B6A554B8F
:1016C4005B69544A43F400335361524B5B6903F43E
:1016D40000333B623B6A4F4B5B694E4A43F48023C1
:1016E40053614C4B5B6903F48023FB61FB69342336
:1016F400FB6303233B6400237B6407F13C0319462B
:10170400454801F035FFF023FB6303233B640023CA
:101714007B6407F13C0319464FF0904001F028FF29
:101724000423FB6303233B6400237B6407F13C0332
:1017340019463A4801F01CFF66E07B681B68394A89
:1017440093422ED1384B1B680133374A1360364B12
:101754001B68012B0BD12F4B5B692E4A43F00053BE
:1017640053612C4B5B6903F00053BB61BB69294B8C
:101774005B69284A43F480235361264B5B6903F475
:1017840080237B617B6942F20303FB6303233B6495
:1017940000237B6407F13C031946204801F0E8FE6E
:1017A40032E07B681B68214A93422DD11E4B1B6893
:1017B40001331D4A13601C4B1B68012B0BD1154BC5
:1017C4005B69144A43F000535361124B5B6903F0A5
:1017D40000533B613B690F4B5B690E4A43F4802322
:1017E40053610C4B5B6903F48023FB60FB684FF48B
:1017F4005043FB6303233B6400237B6407F13C03F6
:101804001946064801F0B4FE00BF5037BD4680BDFE
:10181400FC000020001002400008004800040048BA
:101824000001005000040050000100200005005099
:1018340080B58AB000AF786007F1140300221A6003
:101844005A609A60DA601A617B681B682A4A93427C
:101854004ED12A4BDB69294A43F40033D361274B29
:10186400DB6903F400333B613B69244B5B69234A26
:1018740043F400335361214B5B6903F40033FB6091
:10188400FB680C237B610223BB610023FB61032300
:101894003B6207237B6207F1140319464FF0904023
:1018A40001F066FE164B174A1A60154B00225A6067
:1018B400134B00229A60124B8022DA60104B0022F4
:1018C4001A610F4B00225A610D4B00229A610C4B96
:1018D4000022DA610A4801F0C0FA0346002B01D065
:1018E400FFF72CFE7B68064A5A67054A7B685362F9
:1018F40000BF2837BD4680BD0044004000100240B0
:10190400B40000206C00024080B400AFFEE780B455
:1019140000AFFEE780B400AFFEE780B400AFFEE79F
:1019240080B400AFFEE780B400AF00BFBD465DF8F1
:10193400047B704780B400AF00BFBD465DF8047BF4
:10194400704780B400AF00BFBD465DF8047B7047AC
:1019540080B500AF00F08EF800BF80BD80B500AF49
:10196400024801F020FB00BF80BD00BFB40000208E
:1019740080B400AF064BD3F88830054A43F47003B3
:10198400C2F8883000BFBD465DF8047B704700BFD5
:1019940000ED00E0DFF834D0FFF7EAFF0C480D4912
:1019A4000D4A002302E0D458C4500433C4188C42B6
:1019B400F9D30A4A0A4C002301E013600432A2421C
:1019C400FBD304F0F7FBFFF79DFCFEE700000120CA
:1019D400000000200C0000206862000810000020B5
:1019E40028010020FEE7000080B500AF084B1B680B
:1019F400074A43F010031360032001F0EDF90020BF
:101A040000F008F8FFF7A0FD0023184680BD00BFD2
:101A14000020024080B582B000AF7860124B1A6893
:101A2400124B1B7819464FF47A73B3FBF1F3B2FBF4
:101A3400F3F3184601F005FA0346002B01D0012305
:101A44000EE07B680F2B0AD8002279684FF0FF3034
:101A540001F0CDF9064A7B681360002300E00123FE
:101A640018460837BD4680BD00000020080000204D
:101A74000400002080B400AF064B1B781A46064BC6
:101A84001B681344044A136000BFBD465DF8047B21
:101A9400704700BF080000200401002080B400AF9C
:101AA400034B1B681846BD465DF8047B704700BFB6
:101AB4000401002080B59AB000AF7860002387F855
:101AC400673000233B660023BB607B68002B01D199
:101AD4000123E3E17B681B69002B7B681B6C03F02B
:101AE4001003002B76D17B681B6C002B52D17B68D2
:101AF40000225A647B680022DA647B6800229A64BC
:101B04007B68002283F83C207868FFF741FD7B68FE
:101B14001B689B6803F08053002B3BD1786800F06E
:101B24006FFF034687F867307B681B6C03F0100374
:101B3400002B2FD197F86730002B2BD17B681B6CBF
:101B440023F4885323F0020343F002027B681A64EF
:101B54007B681B689A687B681B6822F040529A6015
:101B64007B681B689A687B681B6842F080529A60A5
:101B7400924B1B68924AA2FB03239A0C13469B00C8
:101B840013445B00BB6002E0BB68013BBB60BB6805
:101B9400002BF9D17B681B689B6803F08053002BF2
:101BA40007D07B681B689B6803F00053B3F1005FA8
:101BB40010D17B681B6C23F0120343F010027B6886
:101BC4001A647B685B6C43F001027B685A640123EE
:101BD40087F867307B681B6C03F01003002B40F020
:101BE400508197F86730002B40F04B817B681B686D
:101BF4009B6803F00403002B40F043817B681B6C5B
:101C040023F4817343F002027B681A647B681B68C7
:101C1400B3F1A04F04D07B681B686A4A934201D198
:101C2400694B00E0694BFB657B681B68B3F1A04F0F
:101C340002D1644BFB601AE07B681B68614A9342E3
:101C440003D14FF0A043FB6011E07B681B68604A3E
:101C5400934202D15F4BFB6009E07B681B685D4ADD
:101C6400934202D15A4BFB6001E00023FB607B6886
:101C74001B689B6803F00303012B08D17B681B6876
:101C84001B6803F00103012B01D1012300E00023B1
:101C9400002B1CD1FB68002B10D0FB689B6803F061
:101CA4000303012B07D1FB681B6803F00103012B1D
:101CB40001D1012300E00023002B08D1FB6D9B68B8
:101CC40023F440327B685B681A43FB6D9A607B683F
:101CD4005B7E5B037A68526B012A02D04FF4805218
:101CE40000E000221A437B68DB681A437B689B6828
:101CF40013433A6E13433B667B6893F82030012B01
:101D04001BD17B685B7E002B09D17B685B6A013B3E
:101D14005A043B6E134343F480333B660DE07B6807
:101D24001B6C23F0220343F020027B681A647B6857
:101D34005B6C43F001027B685A647B689B6A012BED
:101D440054D07B681B68224A934204D07B681B688A
:101D5400204A934240D17B689B6AB3F5307F2AD0F6
:101D64007B689B6AB3F5807F22D07B689B6AB3F55E
:101D7400E07F1AD07B689B6AB3F58A5F12D07B68D8
:101D84009B6AB3F5845F0AD07B689B6AB3F5865F70
:101D940002D07B689B6A23E04FF4C07320E04FF4C9
:101DA400A0731DE04FF470731AE04FF4807317E0D2
:101DB4004FF4307314E04FF4E07311E0000000209E
:101DC40083DE1B4300010050000300500007005055
:101DD40000040050000500507B689B6A23F4805384
:101DE4007A68D26A13433A6E13433B667B681B6876
:101DF4009B6803F00C03002B14D17B681B68DB6821
:101E04007A68126823F4804323F00203D3607B686A
:101E14001B7E9A037B6893F830305B0013433A6E61
:101E240013433B667B681B68DA681E4B13407A6871
:101E34001268396E0B43D3607B681B69012B0CD18C
:101E44007B681B681B6B23F00F017B68DB695A1EE0
:101E54007B681B680A431A6307E07B681B681A6B7C
:101E64007B681B6822F00F021A637B6800225A64A5
:101E74007B681B6C23F0030343F001027B681A6444
:101E84000AE07B681B6C23F0120343F010027B68AA
:101E94001A64012387F8673097F867301846683763
:101EA400BD4680BD07C0F0FF80B584B000AF786048
:101EB4000023FB737B681B689B6803F00403002BFF
:101EC40040F0F9807B6893F83C30012B01D1022368
:101ED400F4E07B68012283F83C20786800F02CFD54
:101EE4000346FB73FB7B002B40F0E0807B681B6C9C
:101EF40023F4706323F0010343F480727B681A6453
:101F04007B681B68B3F1A04F04D07B681B686D4AE3
:101F1400934206D16C4B9B6803F01F03002B10D037
:101F240005E06A4B9B6803F01F03002B09D07B6814
:101F34001B68B3F1A04F04D07B681B68644A9342CA
:101F440015D17B681B6C23F480127B681A647B6850
:101F54001B68DB6803F00073002B36D07B681B6CB6
:101F640023F4405343F480527B681A642DE07B6869
:101F74001B6C43F480127B681A647B681B68B3F1A2
:101F8400A04F04D07B681B684E4A93420AD14FF09D
:101F9400A043DB6803F00073002B14BF012300236C
:101FA400DBB208E04A4BDB6803F00073002B14BF7C
:101FB40001230023DBB2002B07D07B681B6C23F4C6
:101FC400405343F480527B681A647B681B6C03F4AF
:101FD4008053B3F5805F06D17B685B6C23F0060207
:101FE4007B685A6402E07B6800225A647B680022A2
:101FF40083F83C207B681B681C221A607B681B6882
:10200400B3F1A04F04D07B681B682E4A934206D1DB
:102014002D4B9B6803F01F03002B3ED005E02B4B98
:102024009B6803F01F03002B37D07B681B68B3F158
:10203400A04F04D07B681B68224A934206D1224BEE
:102044009B6803F01F03052B27D005E01F4B9B68FB
:1020540003F01F03052B20D07B681B68B3F1A04F4E
:1020640004D07B681B68174A934206D1164B9B68C1
:1020740003F01F03092B10D005E0144B9B6803F0F9
:102084001F03092B09D07B681B68B3F1A04F04D050
:102094007B681B680E4A93420FD17B681B689A6861
:1020A4007B681B6842F004029A6006E07B680022A9
:1020B40083F83C2001E00223FB73FB7B18461037B6
:1020C400BD4680BD000100500003005000070050D1
:1020D4000004005080B584B000AF78600023FB7327
:1020E4007B6893F83C30012B01D1022323E07B6809
:1020F400012283F83C206C21786800F0E7FC034659
:10210400FB73FB7B002B11D1786800F079FC03464C
:10211400FB73FB7B002B09D17B681B6C23F4885376
:1021240023F0010343F001027B681A647B680022F8
:1021340083F83C20FB7B18461037BD4680BD000069
:1021440080B586B000AF7860396000233B617B685E
:102154005B69082B02D108237B613AE07B681B682A
:10216400B3F1A04F04D07B681B68724A934201D13B
:10217400714B00E0714BFB60FB689B6803F01F032D
:10218400002B12D17B681B68DB6803F00103012B71
:102194001DD17B681B6C43F020027B681A647B684A
:1021A400002283F83C200123BFE0FB689B6803F412
:1021B4004043002B0BD07B681B6C43F020027B68F0
:1021C4001A647B68002283F83C200123ADE00C23D1
:1021D4007B617B681B68B3F1A04F04D07B681B68EC
:1021E400544A934206D1544B9B6803F01F03002BBF
:1021F40010D005E0514B9B6803F01F03002B09D05E
:102204007B681B68B3F1A04F04D07B681B684C4A01
:10221400934204D17B681B68DB683B610FE07B68F9
:102224001B68B3F1A04F04D07B681B68414A9342FA
:1022340002D14FF0A04300E0414BDB683B61FFF764
:102244002DFCB86021E03B68B3F1FF3F1DD03B6833
:10225400002B07D0FFF722FC0246BB68D31A3A686A
:102264009A4212D27B681B681A687B691340002B60
:102274000BD17B681B6C43F004027B681A647B6897
:10228400002283F83C2003234FE07B681B681A6814
:102294007B691340002BD6D07B681B6C43F400721F
:1022A4007B681A647B681B68DB6803F44063002B5B
:1022B40031D13B6903F40053002B2CD17B681B689C
:1022C4001B6803F00803082B25D17B681B689B68F7
:1022D40003F00403002B12D17B681B6C23F480727F
:1022E4007B681A647B681B6C03F48053002B12D147
:1022F4007B681B6C43F001027B681A640BE07B680B
:102304001B6C43F020027B681A647B685B6C43F0AF
:1023140001027B685A643B6903F48043002B03D1B8
:102324007B681B687A691A60002318461837BD4613
:1023340080BD00BF000100500003005000070050A2
:102344000004005080B483B000AF78607B681B68E1
:102354001B6C18460C37BD465DF8047B70470000C3
:1023640080B49BB000AF78603960002387F8673091
:102374000023BB607B6893F83C30012B01D102231E
:10238400CAE27B68012283F83C207B681B689B6857
:1023940003F00403002B40F0AE823B685B68042B1F
:1023A4001CD87B681B68196B3B685A6813465B0032
:1023B40013445B001A461F239340DB4319403B68D8
:1023C40018683B685A6813465B0013445B0000FAC4
:1023D40003F27B681B680A431A6363E03B685B682B
:1023E400092B1ED87B681B68596B3B685A681346D7
:1023F4005B0013445B001E3B1F2202FA03F3DB4322
:1024040019403B6818683B685A6813465B001344DC
:102414005B001E3B00FA03F27B681B680A435A63A5
:1024240040E03B685B680E2B1ED87B681B68996B89
:102434003B685A6813465B0013445B003C3B1F2215
:1024440002FA03F3DB4319403B6818683B685A6897
:1024540013465B0013445B003C3B00FA03F27B68C9
:102464001B680A439A631DE07B681B68D96B3B6851
:102474005A6813465B0013445B005A3B1F2202FA5E
:1024840003F3DB4319403B6818683B685A681346FA
:102494005B0013445B005A3B00FA03F27B681B6841
:1024A4000A43DA637B681B689B6803F00C03002B08
:1024B40040F0E5803B681B68092B1CD97B681B68CE
:1024C40099693B681A6813465B0013441E3B072254
:1024D40002FA03F3DB4319403B6898683B681A68C7
:1024E40013465B0013441E3B00FA03F27B681B682F
:1024F4000A439A6119E07B681B6859693B681A684A
:1025040013465B001344072202FA03F3DB4319402A
:102514003B6898683B681A6813465B00134400FAEA
:1025240003F27B681B680A435A613B685A697B68FB
:102534001B68DB68DB0803F003035B0002FA03F3A8
:102544003B663B681B69013B032B4FD801A252F841
:1025540023F000BF692500088B250008AD2500087D
:10256400CF2500087B681B681A6E9A4B13403A68A3
:10257400126891063A6E0A431A437B681B6842F05C
:1025840000421A667EE07B681B685A6E914B1340CA
:102594003A68126891063A6E0A431A437B681B68CC
:1025A40042F000425A666DE07B681B689A6E894B64
:1025B40013403A68126891063A6E0A431A437B68DC
:1025C4001B6842F000429A665CE07B681B68DA6E26
:1025D400804B13403A68126891063A6E0A431A43D4
:1025E4007B681B6842F00042DA664BE07B681B683C
:1025F4001B6E03F0F8423B681B689B069A4207D1A6
:102604007B681B681A6E7B681B6822F000421A669E
:102614007B681B685B6E03F0F8423B681B689B0693
:102624009A4207D17B681B685A6E7B681B6822F04C
:1026340000425A667B681B689B6E03F0F8423B6855
:102644001B689B069A4207D17B681B689A6E7B685D
:102654001B6822F000429A667B681B68DB6E03F0FD
:10266400F8423B681B689B069A420AD17B681B6848
:10267400DA6E7B681B6822F00042DA6601E000BF74
:1026840000E000BF7B681B689B6803F00303012B19
:1026940008D17B681B681B6803F00103012B01D17F
:1026A400012300E00023002B40F030813B68DB680D
:1026B400012B0FD07B681B68D3F8B0103B681B68F4
:1026C400012202FA03F3DA437B681B680A40C3F869
:1026D400B02049E07B681B68D3F8B0103B681B68E6
:1026E40001229A407B681B680A43C3F8B0203B6808
:1026F4001B68092B1CD97B681B6899693B681A689D
:1027040013465B0013441B3B072202FA03F3DB432B
:1027140019403B6898683B681A6813465B00134489
:102724001B3B00FA03F27B681B680A439A611BE0B7
:102734007B681B6859693B681B685A1C13465B001D
:102744001344072202FA03F3DB4319403B689868F9
:102754003B681B685A1C13465B00134400FA03F2DF
:102764007B681B680A435A617B681B68B3F1A04FFE
:1027740004D07B681B68184A934201D1174B00E0D0
:10278400174BFB653B681B68102B05D1FB6D9B68E1
:1027940003F40003002B15D03B681B68112B05D1F3
:1027A400FB6D9B6803F08073002B0BD03B681B68A8
:1027B400122B40F0AB80FB6D9B6803F48003002B6D
:1027C40040F0A4807B681B68B3F1A04F0AD1024B90
:1027D400FB6022E000F0FF83000100500003005082
:1027E400000700507B681B684E4A934203D14FF0A8
:1027F400A043FB6011E07B681B684B4A934202D103
:102804004A4BFB6009E07B681B68484A934202D14B
:10281400454BFB6001E00023FB607B681B689B6801
:1028240003F00303012B08D17B681B681B6803F0CA
:102834000103012B01D1012300E00023002B50D11F
:10284400FB68002B10D0FB689B6803F00303012B8B
:1028540007D1FB681B6803F00103012B01D101239D
:1028640000E00023002B3CD13B681B68102B1DD1DA
:102874007B681B68B3F1A04F18D1FB6D9B6843F4D0
:102884000002FB6D9A602A4B1B682A4AA2FB0323B1
:102894009A0C13469B0013445B00BB6002E0BB68C8
:1028A400013BBB60BB68002BF9D12EE03B681B6881
:1028B400112B0BD17B681B68B3F1A04F06D1FB6DC4
:1028C4009B6843F08072FB6D9A601EE03B681B6856
:1028D400122B1AD1FB6D9B6843F48002FB6D9A6046
:1028E40013E07B681B6C43F020027B681A640123AD
:1028F40087F867300AE07B681B6C43F020027B6832
:102904001A64012387F8673000E000BF7B68002267
:1029140083F83C2097F8673018466C37BD465DF85D
:10292400047B704700010050000400500005005073
:102934000000002083DE1B4380B584B000AF7860C4
:102944000023FB607B681B689B6803F00303012B77
:1029540008D17B681B681B6803F00103012B01D1BC
:10296400012300E00023002B43D17B681B689A6895
:10297400224B1340002B0DD07B681B6C43F01002DC
:102984007B681A647B685B6C43F001027B685A6461
:1029940001232FE07B681B689A687B681B6842F000
:1029A40001029A60FFF77AF8F8601BE0FFF776F807
:1029B4000246FB68D31A022B14D97B681B681B6878
:1029C40003F00103012B0DD07B681B6C43F0100254
:1029D4007B681A647B685B6C43F001027B685A6411
:1029E400012307E07B681B681B6803F00103012BCC
:1029F400DCD1002318461037BD4680BD3F0000805F
:102A040080B584B000AF78600023FB607B681B68EE
:102A14009B6803F00303012B08D17B681B681B68C8
:102A240003F00103012B01D1012300E00023002B5B
:102A340047D07B681B689B6803F00D03012B0FD103
:102A44007B681B689A687B681B6842F002029A6084
:102A54007B681B6803221A60FFF720F8F86029E0FE
:102A64007B681B6C43F010027B681A647B685B6CA8
:102A740043F001027B685A64012323E0FFF70EF858
:102A84000246FB68D31A022B14D97B681B689B6827
:102A940003F00103012B0DD17B681B6C43F0100282
:102AA4007B681A647B685B6C43F001027B685A6440
:102AB400012307E07B681B689B6803F00103012B7B
:102AC400DCD0002318461037BD4680BD80B586B0E3
:102AD40000AF7860396000237B610023FB60002332
:102AE4003B617B681B689B6803F00C03002B00F0C0
:102AF4009B807B681B68DB6803F00073B3F1007F85
:102B04002AD17B685B7E012B26D17B681B7E012B3F
:102B140022D10C233B6014E03B69464A93420DD911
:102B24007B681B6C43F010027B681A647B685B6CE7
:102B340043F001027B685A64012376E03B69013368
:102B44003B617B681B681B6803F04003402BE3D1A7
:102B54007B681B6840221A603B68602B15D07B6839
:102B64001B689B6803F00403042B0ED17B681B686D
:102B74009B6803F00203002B07D17B681B689A68EB
:102B84007B681B6842F010029A603B680C2B15D0DE
:102B94007B681B689B6803F00803082B0ED17B68D5
:102BA4001B689B6803F00203002B07D17B681B683A
:102BB4009A687B681B6842F020029A603B68602B2D
:102BC40005D03B686C2B05D10C237B6105E0082301
:102BD4007B6102E004237B6100BFFEF75FFFF860C6
:102BE4001BE0FEF75BFF0246FB68D31A0B2B14D9DC
:102BF4007B681B689A687B691340002B0DD07B6847
:102C04001B6C43F010027B681A647B685B6C43F0B6
:102C140001027B685A64012307E07B681B689A6899
:102C24007B691340002BDCD1002318461837BD46BE
:102C340080BD00BFFF93090080B485B000AF786009
:102C44007B6803F00703FB600C4BDB68BB60BA686E
:102C54004FF6FF031340BB60FB681A02BB681343C3
:102C640043F0BF6343F40033BB60044ABB68D360E2
:102C740000BF1437BD465DF8047B704700ED00E0EB
:102C840080B400AF044BDB681B0A03F0070318464B
:102C9400BD465DF8047B704700ED00E080B483B06E
:102CA40000AF0346FB7197F90730002B0BDBFB7970
:102CB40003F01F02074997F907305B09012000FA66
:102CC40002F241F8232000BF0C37BD465DF8047BB7
:102CD400704700BF00E100E080B483B000AF03465A
:102CE4003960FB7197F90730002B0ADB3B68DAB2D5
:102CF4000C4997F907301201D2B20B4483F8002330
:102D04000AE03B68DAB20849FB7903F00F03043B9D
:102D14001201D2B20B441A7600BF0C37BD465DF8DF
:102D2400047B704700E100E000ED00E080B489B06E
:102D340000AFF860B9607A60FB6803F00703FB61D9
:102D4400FB69C3F10703042B28BF0423BB61FB69A0
:102D54000433062B02D9FB69033B00E000237B61AB
:102D64004FF0FF32BB6902FA03F3DA43BB681A403F
:102D74007B699A404FF0FF317B6901FA03F3D94331
:102D84007B680B40134318462437BD465DF8047B2B
:102D94007047000080B582B000AF78607B68013B6B
:102DA400B3F1807F01D301230FE00A4A7B68013B22
:102DB40053600F214FF0FF30FFF78EFF054B0022C9
:102DC4009A60044B07221A60002318460837BD4650
:102DD40080BD00BF10E000E080B582B000AF786035
:102DE4007868FFF729FF00BF0837BD4680BD80B56E
:102DF40086B000AF0346B9607A60FB7300237B6141
:102E0400FFF73EFF78617A68B9687869FFF78EFF4B
:102E1400024697F90F3011461846FFF75DFF00BFD1
:102E24001837BD4680BD80B582B000AF0346FB7144
:102E340097F907301846FFF731FF00BF0837BD4642
:102E440080BD80B582B000AF78607868FFF7A2FFDC
:102E5400034618460837BD4680BD80B584B000AF30
:102E640078600023FB607B68002B01D1012337E0ED
:102E74007B68022283F821207B681B681B68FB6047
:102E8400FB6823F47F5323F03003FB607B685A68AC
:102E94007B689B681A437B68DB681A437B681B6901
:102EA4001A437B685B691A437B689B691A437B6896
:102EB400DB691343FA681343FB607B681B68FA6899
:102EC4001A60786800F040F97B6800229A637B6896
:102ED400012283F821207B68002283F8202000232C
:102EE40018461037BD4680BD80B586B000AFF86087
:102EF400B9607A603B600023FB75FB6893F820306F
:102F0400012B01D102234AE0FB68012283F820202F
:102F1400FB6893F82130012B3AD1FB68022283F835
:102F24002120FB6800229A63FB681B681A68FB680F
:102F34001B6822F001021A603B687A68B968F86875
:102F440000F0D4F8FB68DB6A002B08D0FB681B6830
:102F54001A68FB681B6842F00E021A600FE0FB68F7
:102F64001B681A68FB681B6842F00A021A60FB6857
:102F74001B681A68FB681B6822F004021A60FB686D
:102F84001B681A68FB681B6842F001021A6005E0BE
:102F9400FB68002283F820200223FB75FB7D184682
:102FA4001837BD4680BD80B584B000AF78607B68BB
:102FB400DB6B1B68FB607B681B681B68BB607B6802
:102FC4001B6C04229A40FB681340002B24D0BB687E
:102FD40003F00403002B1FD07B681B681B6803F0FD
:102FE4002003002B07D17B681B681A687B681B6869
:102FF40022F004021A607B681A6C7B68DB6B042184
:1030040001FA02F25A607B68DB6A002B6AD07B68A3
:10301400DB6A7868984765E07B681B6C02229A40FB
:10302400FB681340002B2CD0BB6803F00203002B79
:1030340027D07B681B681B6803F02003002B0BD18F
:103044007B681B681A687B681B6822F00A021A6096
:103054007B68012283F821207B681A6C7B68DB6B18
:10306400022101FA02F25A607B68002283F82020D0
:103074007B689B6A002B35D07B689B6A786898478D
:1030840030E07B681B6C08229A40FB681340002BDD
:1030940028D0BB6803F00803002B23D07B681B688F
:1030A4001A687B681B6822F00E021A607B681A6C2F
:1030B4007B68DB6B012101FA02F25A607B68012212
:1030C4009A637B68012283F821207B68002283F8BD
:1030D40020207B681B6B002B04D07B681B6B7868FB
:1030E4009847FFE700BF1037BD4680BD80B485B068
:1030F40000AFF860B9607A603B60FB681A6CFB68EB
:10310400DB6B012101FA02F25A60FB681B683A6822
:103114005A60FB685B68102B08D1FB681B687A68EF
:103124009A60FB681B68BA68DA6007E0FB681B6892
:10313400BA689A60FB681B687A68DA6000BF143763
:10314400BD465DF8047B704780B483B000AF7860FF
:103154007B681B681A46144B9A420FD87B681B681D
:103164001A46124B1344124AA2FB03231B099A006A
:103174007B681A647B680F4ADA630EE07B681B681D
:103184001A460D4B13440A4AA2FB03231B099A0057
:103194007B681A647B68094ADA6300BF0C37BD4652
:1031A4005DF8047B704700BF07040240F8FFFDBFD1
:1031B400CDCCCCCC00000240F8FBFDBF00040240A3
:1031C400F0B587B000AFF860B960C7E90023012308
:1031D400FB750023BB7500237B752F4B1B7E012BD6
:1031E40001D1022354E02C4B01221A764CF25030C8
:1031F40000F0A8F80346FB75FB7D002B44D1FB6867
:10320400012B02D101237B7507E0FB68022B02D15D
:1032140002237B7501E004237B750023BB752DE03D
:10322400BB7D5A00BB6802EB030CBB7D1901D7E9D7
:103234000023C1F12006A1F1200022FA01F403FACF
:1032440006F6344323FA00F0044323FA01F5A3B24B
:103254001946604600F05AF84CF2503000F072F80B
:103264000346FB750D4B1B690C4A23F001031361E4
:10327400FB7D002B07D1BB7D0133BB75BA7D7B7D04
:103284009A42CDD300E000BF034B00221A76FB7DA7
:1032940018461C37BD46F0BD08010020002002403E
:1032A40080B483B000AF0023FB710D4B1B6903F0A6
:1032B4008003002B0DD00A4B0A4A5A60084B0A4A75
:1032C4005A60074B1B6903F08003002B01D00123D4
:1032D400FB71FB7918460C37BD465DF8047B7047DB
:1032E4000020024023016745AB89EFCD80B400AFD5
:1032F400054B1B69044A43F08003136100231846FD
:10330400BD465DF8047B70470020024080B483B062
:1033140000AF78600B467B80084B0022DA61084BD3
:103324001B69074A43F0010313617B687A881A809A
:1033340000BF0C37BD465DF8047B704708010020D0
:103344000020024080B584B000AF7860FEF7A6FB91
:10335400F86010E07B68B3F1FF3F0CD07B68002B72
:1033640007D0FEF79BFB0246FB68D31A7A689A42A1
:1033740001D203231FE0124BDB6803F00103012B8E
:10338400E8D00F4BDB6803F02003202B02D10C4B59
:103394002022DA600A4BDB6803F01003102B05D0FF
:1033A400074BDB6803F00403042B03D100F00AF895
:1033B400012300E0002318461037BD4680BD00BF3E
:1033C4000020024080B483B000AF00237B60144B24
:1033D400DB6803F01003102B09D1124BDB6943F0B7
:1033E4000203104AD3617B6843F010037B600C4BEB
:1033F400DB6803F00403042B09D10A4BDB6943F0B7
:103404000103084AD3617B6843F004037B60044AE8
:103414007B68D36000BF0C37BD465DF8047B704702
:10342400002002400801002080B584B000AF78601D
:1034340039600123FB730023BB602E4B1B7E012BE1
:1034440001D1022352E02B4B01221A767B681B68C0
:10345400012B15D14CF25030FFF774FF0346002BBB
:1034640040D100F04BF84CF25030FFF76BFF0346AD
:10347400FB73214B1B69204A23F00403136131E0E1
:103484004CF25030FFF75EFF0346002B2AD13B6815
:103494004FF0FF321A607B685B68BB6019E0B86864
:1034A40000F046F84CF25030FFF74CFF0346FB7334
:1034B400114B1B69104A23F002031361FB7B002BA1
:1034C40003D03B68BA681A600CE0BB6803F500637C
:1034D400BB607B689B68DA027B685B681344BA68EC
:1034E4009A42DCD3034B00221A76FB7B1846103732
:1034F400BD4680BD080100200020024080B400AF1A
:10350400094B0022DA61094B1B69084A43F00403A2
:103514001361064B1B69054A43F04003136100BF66
:10352400BD465DF8047B704708010020002002407E
:1035340080B483B000AF78600B4B0022DA610B4B90
:103544001B690A4A43F002031361084A7B6853610A
:10355400064B1B69054A43F04003136100BF0C3757
:10356400BD465DF8047B704708010020002002403E
:1035740080B487B000AF7860396000237B6160E17C
:103584003B681A6801217B6901FA03F31340FB606D
:10359400FB68002B00F052813B685B6803F0030377
:1035A400012B05D03B685B6803F00303022B30D189
:1035B4007B689B683B617B695B00032202FA03F32F
:1035C400DB433A6913403B613B68DA687B695B0023
:1035D40002FA03F33A6913433B617B683A699A60E0
:1035E4007B685B683B6101227B6902FA03F3DB437E
:1035F4003A6913403B613B685B681B0903F00102B5
:103604007B6902FA03F33A6913433B617B683A69C5
:103614005A603B685B6803F00303032B17D07B6895
:10362400DB683B617B695B00032202FA03F3DB4343
:103634003A6913403B613B689A687B695B0002FA14
:1036440003F33A6913433B617B683A69DA603B6888
:103654005B6803F00303022B23D17B69DA087B68E0
:10366400083253F822303B617B6903F007039B0067
:103674000F2202FA03F3DB433A6913403B613B68D0
:103684001A697B6903F007039B0002FA03F33A69A2
:1036940013433B617B69DA087B680832396943F874
:1036A40022107B681B683B617B695B00032202FA82
:1036B40003F3DB433A6913403B613B685B6803F007
:1036C40003027B695B0002FA03F33A6913433B612B
:1036D4007B683A691A603B685B6803F44033002BEB
:1036E40000F0AC805E4B9B695D4A43F0010393613B
:1036F4005B4B9B6903F00103BB60BB68594A7B6960
:103704009B08023352F823303B617B6903F00303C7
:103714009B000F2202FA03F3DB433A6913403B6137
:103724007B68B3F1904F25D07B684F4A93421FD0FA
:103734007B684E4A934219D07B684D4A934213D01A
:103744007B684C4A93420DD07B684B4A934207D026
:103754007B684A4A934201D106230CE007230AE01E
:10376400052308E0042306E0032304E0022302E027
:10377400012300E000237A6902F0030292009340DF
:103784003A6913433B6137497B699B0802333A69C1
:1037940041F823203A4B9B683B61FB68DB433A6961
:1037A40013403B613B685B6803F48013002B03D038
:1037B4003A69FB6813433B61314A3B699360304B80
:1037C400DB683B61FB68DB433A6913403B613B6860
:1037D4005B6803F40013002B03D03A69FB681343BE
:1037E4003B61274A3B69D360254B5B683B61FB68BF
:1037F400DB433A6913403B613B685B6803F4003385
:10380400002B03D03A69FB6813433B611C4A3B69B4
:1038140053601B4B1B683B61FB68DB433A691340F5
:103824003B613B685B6803F48033002B03D03A6947
:10383400FB6813433B61124A3B6913607B690133A4
:103844007B613B681A687B6922FA03F3002B7FF4DF
:1038540097AE00BF00BF1C37BD465DF8047B7047C0
:103864000010024000000140000400480008004825
:10387400000C0048001000480014004800180048DC
:103884000004014080B487B000AF78603960002341
:103894007B61C4E001227B6902FA03F33A681340B6
:1038A4003B613B69002B00F0B780644A7B699B084D
:1038B400023352F82330FB607B6903F003039B005F
:1038C4000F2202FA03F3FA681340FB607B68B3F13A
:1038D400904F25D07B685A4A93421FD07B68594A3F
:1038E400934219D07B68584A934213D07B68574A55
:1038F40093420DD07B68564A934207D07B68554A61
:10390400934201D106230CE007230AE0052308E0D3
:10391400042306E0032304E0022302E0012300E081
:1039240000237A6902F0030292009340FA689A42F3
:1039340032D1494B1A683B69DB43474913400B605A
:10394400454B5A683B69DB43434913404B60424B48
:10395400DA683B69DB4340491340CB603E4B9A68CD
:103964003B69DB433C4913408B607B6903F00303F1
:103974009B000F2202FA03F3FB60304A7B699B0829
:10398400023352F82310FB68DA432C487B699B0806
:103994000A40023340F823207B681A687B695B0085
:1039A400032101FA03F3DB431A407B681A607B6945
:1039B400DA087B68083253F822107B6903F00703A6
:1039C4009B000F2202FA03F3DB437A69D208194001
:1039D4007B68083243F822107B68DA687B695B00F5
:1039E400032101FA03F3DB431A407B68DA607B6846
:1039F4005A6801217B6901FA03F3DB431A407B68AF
:103A04005A607B689A687B695B00032101FA03F3BF
:103A1400DB431A407B689A607B6901337B613A68B7
:103A24007B6922FA03F3002B7FF434AF00BF00BF9D
:103A34001C37BD465DF8047B704700BF00000140A1
:103A44000004004800080048000C0048001000482A
:103A540000140048001800480004014080B483B0FA
:103A640000AF78600B467B8013467B707B78002B1D
:103A740003D07A887B689A6102E07A887B689A62CC
:103A840000BF0C37BD465DF8047B704780B5ADF5CB
:103A9400027D00AF07F50273A3F50173186007F503
:103AA4000273A3F501731B68002B02D1012301F0FB
:103AB4003AB807F50273A3F501731B681B6803F09A
:103AC4000103002B00F06F81B54B5B6803F00C031E
:103AD400042B0CD0B24B5B6803F00C03082B5CD1B5
:103AE400AF4B5B6803F4C033B3F5803F55D14FF45B
:103AF4000033C7F8F431D7F8F43193FAA3F3C7F8D5
:103B0400F031D7F8F031B3FA83F3DBB25B09DBB2FF
:103B140043F00103DBB2012B02D1A14B1B6815E07A
:103B24004FF40033C7F8EC31D7F8EC3193FAA3F330
:103B3400C7F8E8314FF40033C7F8E431D7F8E4317B
:103B440093FAA3F3C7F8E031954B5B6A4FF4003264
:103B5400C7F8DC21D7F8DC2192FAA2F2C7F8D82101
:103B6400D7F8D821B2FA82F2D2B242F02002D2B20D
:103B740002F01F02012101FA02F21340002B00F0AF
:103B8400118107F50273A3F501731B685B68002BB1
:103B940040F00881012300F0C6BF07F50273A3F5C6
:103BA40001731B685B68B3F5803F06D17C4B1B68CF
:103BB4007B4A43F48033136036E007F50273A3F5C0
:103BC40001731B685B68002B0CD1754B1B68744A2E
:103BD40023F480331360724B1B68714A23F48023EF
:103BE400136021E007F50273A3F501731B685B689A
:103BF400B3F5A02F0CD16A4B1B68694A43F48023A8
:103C04001360674B1B68664A43F4803313600BE010
:103C1400634B1B68624A23F480331360604B1B6858
:103C24005F4A23F48023136007F50273A3F501733D
:103C34001B685B68002B59D0FDF730FFC7F8000202
:103C44000AE0FDF72BFF0246D7F80032D31A642BA3
:103C540002D9032300F067BF4FF40033C7F8D4310F
:103C6400D7F8D43193FAA3F3C7F8D031D7F8D031C9
:103C7400B3FA83F3DBB25B09DBB243F00103DBB2DB
:103C8400012B02D1464B1B6815E04FF40033C7F8F3
:103C9400CC31D7F8CC3193FAA3F3C7F8C8314FF439
:103CA4000033C7F8C431D7F8C43193FAA3F3C7F883
:103CB400C0313B4B5B6A4FF40032C7F8BC21D7F8E4
:103CC400BC2192FAA2F2C7F8B821D7F8B821B2FA07
:103CD40082F2D2B242F02002D2B202F01F020121DB
:103CE40001FA02F21340002BABD05CE0FDF7D6FEE4
:103CF400C7F800020AE0FDF7D1FE0246D7F8003209
:103D0400D31A642B02D9032300F00DBF4FF4003300
:103D1400C7F8B431D7F8B43193FAA3F3C7F8B03184
:103D2400D7F8B031B3FA83F3DBB25B09DBB243F00B
:103D34000103DBB2012B02D1194B1B6815E04FF4D0
:103D44000033C7F8AC31D7F8AC3193FAA3F3C7F812
:103D5400A8314FF40033C7F8A431D7F8A43193FA4B
:103D6400A3F3C7F8A0310E4B5B6A4FF40032C7F8D7
:103D74009C21D7F89C2192FAA2F2C7F89821D7F88F
:103D84009821B2FA82F2D2B242F02002D2B202F008
:103D94001F02012101FA02F21340002BABD102E011
:103DA4000010024000BF07F50273A3F501731B68FE
:103DB4001B6803F00203002B00F07F81A74B5B68B4
:103DC40003F00C03002B0CD0A44B5B6803F00C0332
:103DD400082B73D1A14B5B6803F4C033B3F5004FD8
:103DE4006CD10223C7F89431D7F8943193FAA3F332
:103DF400C7F89031D7F89031B3FA83F3DBB25B099B
:103E0400DBB243F00103DBB2012B02D1934B1B68FD
:103E140013E00223C7F88C31D7F88C3193FAA3F35B
:103E2400C7F888310223C7F88431D7F8843193FA6C
:103E3400A3F3C7F88031894B5B6A0222C7F87C215F
:103E4400D7F87C2192FAA2F2C7F87821D7F8782122
:103E5400B2FA82F2D2B242F02002D2B202F01F02CF
:103E6400012101FA02F21340002B0AD007F5027374
:103E7400A3F501731B68DB68012B02D0012300F05A
:103E840052BE764B1B6823F0F80207F50273A3F5C4
:103E940001731B681B69F821C7F87411D7F87411F2
:103EA40091FAA1F1C7F87011D7F87011B1FA81F144
:103EB400C9B28B40694913430B60FEE007F50273F6
:103EC400A3F501731B68DB68002B00F088800123D5
:103ED400C7F86C31D7F86C3193FAA3F3C7F868319B
:103EE400D7F86831B3FA83F3DBB203F1845303F5F3
:103EF40084139B001A4601231360FDF7CFFDC7F816
:103F040000020AE0FDF7CAFD0246D7F80032D31AD0
:103F1400022B02D9032300F006BE0223C7F8643142
:103F2400D7F8643193FAA3F3C7F86031D7F8603156
:103F3400B3FA83F3DBB25B09DBB243F00103DBB218
:103F4400012B02D1454B1B6813E00223C7F85C31F7
:103F5400D7F85C3193FAA3F3C7F858310223C7F8B2
:103F64005431D7F8543193FAA3F3C7F850313B4B8B
:103F74005B6A0222C7F84C21D7F84C2192FAA2F2CC
:103F8400C7F84821D7F84821B2FA82F2D2B242F0F7
:103F94002002D2B202F01F02012101FA02F2134000
:103FA400002BAFD02D4B1B6823F0F80207F50273EA
:103FB400A3F501731B681B69F821C7F84411D7F8EE
:103FC400441191FAA1F1C7F84011D7F84011B1FAA0
:103FD40081F1C9B28B40214913430B606DE0012389
:103FE400C7F83C31D7F83C3193FAA3F3C7F838311A
:103FF400D7F83831B3FA83F3DBB203F1845303F512
:1040040084139B001A4600231360FDF747FDC7F88D
:1040140000020AE0FDF742FD0246D7F80032D31A47
:10402400022B02D9032300F07EBD0223C7F83431EA
:10403400D7F8343193FAA3F3C7F83031D7F83031D5
:10404400B3FA83F3DBB25B09DBB243F00103DBB207
:10405400012B05D1014B1B6816E000BF0010024084
:104064000223C7F82C31D7F82C3193FAA3F3C7F8FD
:1040740028310223C7F82431D7F8243193FAA3F363
:10408400C7F82031BF4B5B6A0222C7F81C21D7F85E
:104094001C2192FAA2F2C7F81821D7F81821B2FA13
:1040A40082F2D2B242F02002D2B202F01F02012107
:1040B40001FA02F21340002BACD107F50273A3F509
:1040C40001731B681B6803F00803002B00F01381C5
:1040D40007F50273A3F501731B685B69002B7CD0A1
:1040E4000123C7F81431D7F8143193FAA3F3C7F8AE
:1040F4001031D7F81031B3FA83F3DBB21A46A24B6E
:1041040013449B001A4601231360FDF7C7FCC7F84C
:1041140000020AE0FDF7C2FC0246D7F80032D31AC7
:10412400022B02D9032300F0FEBC0223C7F80C3192
:10413400D7F80C3193FAA3F207F50273A3F5807351
:104144001A6007F50273A3F5827302221A6007F559
:104154000273A3F582731B6893FAA3F207F5027343
:10416400A3F584731A6007F50273A3F5867302221C
:104174001A6007F50273A3F586731B6893FAA3F21A
:1041840007F50273A3F588731A607E4B5A6A07F524
:104194000273A3F58A730221196007F50273A3F56C
:1041A4008A731B6893FAA3F107F50273A3F58C7362
:1041B400196007F50273A3F58C731B68B3FA83F3D4
:1041C400DBB243F06003DBB203F01F03012101FA09
:1041D40003F31340002B9DD08DE007F50273A3F584
:1041E4008E7301221A6007F50273A3F58E731B68A0
:1041F40093FAA3F207F50273A3F590731A6007F517
:104204000273A3F590731B68B3FA83F3DBB21A4607
:104214005D4B13449B001A4600231360FDF73EFCDC
:10422400C7F800020AE0FDF739FC0246D7F800326D
:10423400D31A022B02D9032300F075BC07F50273CD
:10424400A3F5927302221A6007F50273A3F5927321
:104254001B6893FAA3F207F50273A3F594731A602B
:1042640007F50273A3F5967302221A6007F5027329
:10427400A3F596731B6893FAA3F207F50273A3F5EB
:1042840098731A6007F50273A3F59A7302221A60F1
:1042940007F50273A3F59A731B6893FAA3F207F563
:1042A4000273A3F59C731A60364B5A6A07F50273BE
:1042B400A3F59E730221196007F50273A3F59E739B
:1042C4001B6893FAA3F107F50273A3F5A0731960B1
:1042D40007F50273A3F5A0731B68B3FA83F3DBB28B
:1042E40043F06003DBB203F01F03012101FA03F37F
:1042F4001340002B97D107F50273A3F501731B68D4
:104304001B6803F00403002B00F0A581002387F849
:1043140007321C4BDB6903F08053002B16D1194B79
:10432400DB69184A43F08053D361164BDB6903F011
:10433400805207F50273A3F5FE731A6007F5027342
:10434400A3F5FE731B68012387F807320F4B1B6824
:1043540003F48073002B21D10C4B1B680B4A43F4EC
:1043640080731360FDF79AFBC7F8000210E0FDF7B5
:1043740095FB0246D7F80032D31A642B08D90323DD
:10438400D1E300BF00100240208190100070004073
:104394008D4B1B6803F48073002BE8D007F5027380
:1043A400A3F501731B689B68012B06D1874B1B6A1D
:1043B400864A43F00103136235E007F50273A3F55F
:1043C40001731B689B68002B0CD1804B1B6A7F4ACE
:1043D40023F0010313627D4B1B6A7C4A23F0040320
:1043E400136220E007F50273A3F501731B689B6851
:1043F400052B0CD1754B1B6A744A43F004031362FA
:10440400724B1B6A714A43F0010313620BE06F4B5A
:104414001B6A6E4A23F0010313626C4B1B6A6B4ADE
:1044240023F00403136207F50273A3F501731B68F9
:104434009B68002B00F08180FDF730FBC7F8000279
:104444000BE0FDF72BFB0246D7F80032D31A41F2FA
:104454008832934201D9032365E307F50273A3F578
:10446400A27302221A6007F50273A3F5A2731B68F4
:1044740093FAA3F207F50273A3F5A4731A6007F580
:104484000273A3F5A67302221A6007F50273A3F55B
:10449400A6731B6893FAA3F207F50273A3F5A87336
:1044A4001A6007F50273A3F5A8731B68B3FA83F3C4
:1044B400DBB25B09DBB243F00203DBB2022B02D1B5
:1044C400424B1B6A13E007F50273A3F5AA73022299
:1044D4001A6007F50273A3F5AA731B6893FAA3F293
:1044E40007F50273A3F5AC731A60384B5B6A07F5E2
:1044F4000272A2F5AE720221116007F50272A2F5F2
:10450400AE72126892FAA2F107F50272A2F5B072C5
:10451400116007F50272A2F5B0721268B2FA82F263
:10452400D2B242F04002D2B202F01F02012101FADB
:1045340002F21340002B84D083E0FDF7AFFAC7F8F2
:1045440000020BE0FDF7AAFA0246D7F80032D31AAC
:1045540041F28832934201D90323E4E207F502735E
:10456400A3F5B27302221A6007F50273A3F5B273BE
:104574001B6893FAA3F207F50273A3F5B4731A60E8
:1045840007F50273A3F5B67302221A6007F50273E6
:10459400A3F5B6731B6893FAA3F207F50273A3F5A8
:1045A400B8731A6007F50273A3F5B8731B68B3FAFE
:1045B40083F3DBB25B09DBB243F00203DBB2022B11
:1045C40006D1024B1B6A17E0007000400010024045
:1045D40007F50273A3F5BA7302221A6007F5027392
:1045E400A3F5BA731B6893FAA3F207F50273A3F554
:1045F400BC731A60B34B5B6A07F50272A2F5BE7214
:104604000221116007F50272A2F5BE72126892FAD5
:10461400A2F107F50272A2F5C072116007F50272E9
:10462400A2F5C0721268B2FA82F2D2B242F040022B
:10463400D2B202F01F02012101FA02F21340002B50
:1046440080D197F80732012B05D19E4BDB699D4A37
:1046540023F08053D36107F50273A3F501731B683C
:104664009B69002B00F05E82964B5B6803F00C03A1
:10467400082B00F01F8207F50273A3F501731B6872
:104684009B69022B40F0708107F50273A3F5C27396
:104694004FF080721A6007F50273A3F5C2731B68AA
:1046A40093FAA3F207F50273A3F5C4731A6007F52E
:1046B4000273A3F5C4731B68B3FA83F3DBB203F18B
:1046C400845303F584139B001A4600231360FDF7FB
:1046D400E5F9C7F8000209E0FDF7E0F90246D7F86A
:1046E4000032D31A022B01D903231CE207F502730B
:1046F400A3F5C6734FF000721A6007F50273A3F5B1
:10470400C6731B6893FAA3F207F50273A3F5C87383
:104714001A6007F50273A3F5C8731B68B3FA83F331
:10472400DBB25B09DBB243F00103DBB2012B02D144
:10473400644B1B6827E007F50273A3F5CA734FF0B7
:1047440000721A6007F50273A3F5CA731B6893FA23
:10475400A3F207F50273A3F5CC731A6007F502738D
:10476400A3F5CE734FF000721A6007F50273A3F538
:10477400CE731B6893FAA3F207F50273A3F5D07303
:104784001A60504B5B6A07F50272A2F5D2724FF0C1
:104794000071116007F50272A2F5D272126892FAE2
:1047A400A2F107F50272A2F5D472116007F5027244
:1047B400A2F5D4721268B2FA82F2D2B242F02002A6
:1047C400D2B202F01F02012101FA02F21340002BBF
:1047D40082D13C4BDB6A23F00F0207F50273A3F589
:1047E40001731B685B6A37491343CB62354B5B68C3
:1047F40023F4761207F50273A3F501731B68196A93
:1048040007F50273A3F501731B68DB690B432D499C
:1048140013434B6007F50273A3F5D6734FF0807210
:104824001A6007F50273A3F5D6731B6893FAA3F213
:1048340007F50273A3F5D8731A6007F50273A3F59D
:10484400D8731B68B3FA83F3DBB203F1845303F523
:1048540084139B001A4601231360FDF71FF9C7F860
:10486400000209E0FDF71AF90246D7F80032D31A1C
:10487400022B01D9032356E107F50273A3F5DA737A
:104884004FF000721A6007F50273A3F5DA731B6820
:1048940093FAA3F207F50273A3F5DC731A6007F524
:1048A4000273A3F5DC731B68B3FA83F3DBB25B0911
:1048B400DBB243F00103DBB2012B05D1014B1B68D2
:1048C4002AE000BF0010024007F50273A3F5DE736F
:1048D4004FF000721A6007F50273A3F5DE731B68CC
:1048E40093FAA3F207F50273A3F5E0731A6007F5D0
:1048F4000273A3F5E2734FF000721A6007F50273B6
:10490400A3F5E2731B6893FAA3F207F50273A3F508
:10491400E4731A60864B5B6A07F50272A2F5E672CD
:104924004FF00071116007F50272A2F5E672126889
:1049340092FAA2F107F50272A2F5E872116007F586
:104944000272A2F5E8721268B2FA82F2D2B242F0AE
:104954002002D2B202F01F02012101FA02F2134036
:10496400002B3FF47FAFDDE007F50273A3F5EA7394
:104974004FF080721A6007F50273A3F5EA731B689F
:1049840093FAA3F207F50273A3F5EC731A6007F523
:104994000273A3F5EC731B68B3FA83F3DBB203F180
:1049A400845303F584139B001A4600231360FDF718
:1049B40075F8C7F8000209E0FDF770F80246D7F869
:1049C4000032D31A022B01D90323ACE007F502739A
:1049D400A3F5EE734FF000721A6007F50273A3F5A6
:1049E400EE731B6893FAA3F207F50273A3F5F07351
:1049F4001A6007F50273A3F5F0731B68B3FA83F327
:104A0400DBB25B09DBB243F00103DBB2012B02D161
:104A1400474B1B6827E007F50273A3F5F2734FF0C9
:104A240000721A6007F50273A3F5F2731B6893FA18
:104A3400A3F207F50273A3F5F4731A6007F5027382
:104A4400A3F5F6734FF000721A6007F50273A3F52D
:104A5400F6731B6893FAA3F207F50273A3F5F873D0
:104A64001A60334B5B6A07F50272A2F5FA724FF0D3
:104A74000071116007F50272A2F5FA72126892FAD7
:104A8400A2F107F50272A2F5FC72116007F5027239
:104A9400A2F5FC721268B2FA82F2D2B242F020029B
:104AA400D2B202F01F02012101FA02F21340002BDC
:104AB40082D137E007F50273A3F501731B689B6984
:104AC400012B01D101232EE0194B5B68C7F8FC319F
:104AD400174BDB6AC7F8F831D7F8FC3103F4C0325E
:104AE40007F50273A3F501731B68DB699A4217D1BA
:104AF400D7F8FC3103F4701207F50273A3F50173C0
:104B04001B681B6A9A420BD1D7F8F83103F00F02E5
:104B140007F50273A3F501731B685B6A9A4201D01F
:104B2400012300E00023184607F50277BD4680BD47
:104B34000010024080B59EB000AF78603960002359
:104B44007B677B68002B01D1012362E1904B1B68DA
:104B540003F007033A689A4210D98D4B1B6823F07F
:104B640007028B493B6813430B60894B1B6803F0B6
:104B740007033A689A4201D001234AE17B681B6823
:104B840003F00203002B08D0824B5B6823F0F00291
:104B94007B689B687F4913434B607B681B6803F009
:104BA4000103002B00F0DC807B685B68012B3CD1A7
:104BB4004FF400333B673B6F93FAA3F3FB66FB6E42
:104BC400B3FA83F3DBB25B09DBB243F00103DBB27C
:104BD400012B02D16F4B1B680FE04FF40033BB660F
:104BE400BB6E93FAA3F37B664FF400333B663B6ED4
:104BF40093FAA3F3FB65674B5B6A4FF40032BA6523
:104C0400BA6D92FAA2F27A657A6DB2FA82F2D2B2EF
:104C140042F02002D2B202F01F02012101FA02F294
:104C24001340002B7BD10123F3E07B685B68022BEC
:104C34003CD14FF000733B653B6D93FAA3F3FB64E7
:104C4400FB6CB3FA83F3DBB25B09DBB243F0010321
:104C5400DBB2012B02D14F4B1B680FE04FF0007306
:104C6400BB64BB6C93FAA3F37B644FF000733B64A7
:104C74003B6C93FAA3F3FB63464B5B6A4FF0007201
:104C8400BA63BA6B92FAA2F27A637A6BB2FA82F2DC
:104C9400D2B242F02002D2B202F01F02012101FA84
:104CA40002F21340002B3AD10123B2E002233B630A
:104CB4003B6B93FAA3F3FB62FB6AB3FA83F3DBB2B5
:104CC4005B09DBB243F00103DBB2012B02D1314BB0
:104CD4001B680DE00223BB62BB6A93FAA3F37B62F9
:104CE40002233B623B6A93FAA3F3FB61294B5B6AA1
:104CF4000222BA61BA6992FAA2F27A617A69B2FAC4
:104D040082F2D2B242F02002D2B202F01F0201219A
:104D140001FA02F21340002B01D1012379E01D4B6B
:104D24005B6823F003027B685B681A4913434B609A
:104D3400FCF7B4FE78670AE0FCF7B0FE02467B6F2E
:104D4400D31A41F28832934201D9032361E0114B13
:104D54005B6803F00C027B685B689B009A42EBD1B2
:104D64000B4B1B6803F007033A689A4214D2084BB2
:104D74001B6823F0070206493B6813430B60044B8E
:104D84001B6803F007033A689A4205D0012340E008
:104D940000200240001002407B681B6803F00403FB
:104DA400002B08D01D4B5B6823F4E0627B68DB6852
:104DB4001A4913434B607B681B6803F00803002BFC
:104DC40009D0164B5B6823F460527B681B69DB00D7
:104DD400124913434B6000F029F801460F4B5B68FE
:104DE40003F0F003F0223A613A6992FAA2F2FA600F
:104DF400FA68B2FA82F2D2B2D340094AD35C21FAF9
:104E040003F3084A1360084B1B681846FCF702FEBC
:104E1400002318467837BD4680BD00BF001002400D
:104E240028620008000000200400002080B48BB039
:104E340000AF0023FB610023BB6100237B620023DE
:104E44007B6100233B622A4B5B68FB61FB6903F0D7
:104E54000C03042B02D0082B03D03FE0254B3B620C
:104E64003FE0FB6903F470134FF47012BA60BA6840
:104E740092FAA2F27A607A68B2FA82F2D2B2D3409B
:104E84001D4AD35C7B611A4BDB6A03F00F030F22CC
:104E94003A613A6992FAA2F2FA60FA68B2FA82F2D4
:104EA400D2B2D340154AD35CBB61FB6903F48033AF
:104EB400002B08D00F4ABB69B2FBF3F27B6902FBFB
:104EC40003F37B6207E00B4ABB69B2FBF3F27B6935
:104ED40002FB03F37B627B6A3B6202E0054B3B62AD
:104EE40000BF3B6A18462C37BD465DF8047B70470B
:104EF4000010024000127A0040620008506200086C
:104F040080B400AF034B1B681846BD465DF8047BB4
:104F1400704700BF0000002080B582B000AFFFF7EB
:104F2400EFFF01460B4B5B6803F4E0634FF4E06270
:104F34007A607A6892FAA2F23A603A68B2FA82F235
:104F4400D2B2D340044AD35C21FA03F3184608379B
:104F5400BD4680BD001002403862000880B582B0B2
:104F640000AFFFF7CDFF01460B4B5B6803F46053C2
:104F74004FF460527A607A6892FAA2F23A603A6820
:104F8400B2FA82F2D2B2D340044AD35C21FA03F3D8
:104F940018460837BD4680BD00100240386200083C
:104FA40080B592B000AF786000233B640023FB63BC
:104FB400002387F847307B681B6803F48033002B99
:104FC40000F0D4804E4BDB6903F08053002B0ED1EC
:104FD4004B4BDB694A4A43F08053D361484BDB694E
:104FE40003F08053BB60BB68012387F84730454B0F
:104FF4001B6803F48073002B18D1424B1B68414A91
:1050040043F480731360FCF749FD386408E0FCF74F
:1050140045FD02463B6CD31A642B01D90323D6E128
:10502400384B1B6803F48073002BF0D0344B1B6A9D
:1050340003F44073FB63FB6B002B00F084807B68FC
:105044005B6803F44073FA6B9A427CD02C4B1B6A66
:1050540023F44073FB634FF480333B633B6B93FA5D
:10506400A3F3FB62FB6AB3FA83F3DBB21A46264B63
:1050740013449B001A46012313604FF48033BB632F
:10508400BB6B93FAA3F37B637B6BB3FA83F3DBB25F
:105094001A461D4B13449B001A4600231360184AFA
:1050A400FB6B1362FB6B03F00103002B4BD0FCF78B
:1050B400F5FC38640AE0FCF7F1FC02463B6CD31AB9
:1050C40041F28832934201D9032380E10223BB6277
:1050D400BB6A93FAA3F37B6202233B623B6A93FAB3
:1050E400A3F3FB61FB69B3FA83F3DBB25B09DBB2C5
:1050F40043F00203DBB2022B08D1014B1B6A0DE023
:105104000010024000700040008190100223BB6137
:10511400BB6993FAA3F37B619A4B5B6A02223A61FF
:105124003A6992FAA2F2FA60FA68B2FA82F2D2B258
:1051340042F04002D2B202F01F02012101FA02F24F
:105144001340002BB7D08F4B1B6A23F440727B684B
:105154005B688C4913430B6297F84730012B05D1E8
:10516400884BDB69874A23F08053D3617B681B68D3
:1051740003F00103002B08D0824B1B6B23F00302C6
:105184007B689B687F4913430B637B681B6803F050
:105194000203002B08D07B4B1B6B23F440327B684B
:1051A400DB68784913430B637B681B6803F00403D3
:1051B400002B08D0734B1B6B23F440227B681B69C4
:1051C400704913430B637B681B6803F02003002BB7
:1051D40008D06C4B1B6B23F010027B68DB696949B8
:1051E40013430B637B681B6803F40033002B08D064
:1051F400644B5B6823F480027B685B6D61491343F5
:105204004B607B681B6803F04003002B08D05D4BA8
:105214001B6B23F020027B681B6A5A4913430B6300
:105224007B681B6803F48023002B08D0554B1B6B51
:1052340023F040027B685B6A524913430B637B682B
:105244001B6803F00803002B08D04E4B1B6B23F4A0
:1052540040127B685B694B4913430B637B681B6893
:1052640003F01003002B08D0464B1B6B23F44002C1
:105274007B689B69434913430B637B681B6803F496
:105284000073002B08D03F4B5B6823F400027B685B
:105294001B6B3C4913434B607B681B6803F0800322
:1052A400002B08D0374BDB6A23F4F8727B689B6AC7
:1052B40034491343CB627B681B6803F48073002B6F
:1052C40008D0304BDB6A23F478527B68DB6A2D49C3
:1052D4001343CB627B681B6803F48053002B08D014
:1052E400284B1B6B23F480727B685B6B254913434B
:1052F4000B637B681B6803F40053002B08D0214B1D
:105304001B6B23F400727B681B6C1E4913430B63F5
:105314007B681B6803F48013002B08D0194B1B6BAC
:1053240023F080727B689B6B164913430B637B6885
:105334001B6803F40013002B08D0124B1B6B23F0E3
:1053440000727B68DB6B0F4913430B637B681B683C
:1053540003F48003002B08D00A4B1B6B23F48062F8
:105364007B685B6C074913430B637B681B6803F41E
:105374000003002B0CD0034B1B6B23F400627B68EF
:1053840002E000BF001002409B6C134913430B63FF
:105394007B681B6803F08073002B08D00E4B1B6BDB
:1053A40023F400527B68DB6C0B4913430B637B686B
:1053B4001B6803F00073002B08D0074B1B6B23F40E
:1053C40000427B681B6D044913430B63002318469A
:1053D4004837BD4680BD00BF0010024080B582B092
:1053E40000AF78607B68002B01D1012340E07B682B
:1053F400DB6F002B06D17B68002283F87820786865
:10540400FCF716FA7B682422DA677B681B681A6843
:105414007B681B6822F001021A60786800F0D4F8F7
:105424000346012B01D1012322E07B685B6A002B38
:1054340002D0786800F09CFA7B681B685A687B6825
:105444001B6822F490425A607B681B689A687B68E8
:105454001B6822F02A029A607B681B681A687B68C2
:105464001B6842F001021A60786800F023FB0346CF
:1054740018460837BD4680BD80B58AB002AFF860D3
:10548400B9603B601346FB80FB68DB6F202B78D14F
:10549400BB68002B02D0FB88002B01D1012371E0F3
:1054A400FB680022C3F88420FB682122DA67FCF73A
:1054B400F5FA7861FB68FA88A3F85020FB68FA884B
:1054C400A3F85220FB689B68B3F5805F08D1FB68A2
:1054D4001B69002B04D10023FB61BB68BB6103E0A3
:1054E400BB68FB610023BB6130E03B6800937B69D0
:1054F40000228021F86800F085FB0346002B04D0CD
:10550400FB682022DA6703233CE0FB69002B0BD104
:10551400BB691A88FB681B68C2F3080292B21A8539
:10552400BB690233BB6108E0FB691A78FB681B683E
:1055340092B21A85FB690133FB61FB68B3F8523000
:105544009BB2013B9AB2FB68A3F85220FB68B3F804
:1055540052309BB2002BC8D13B6800937B69002278
:105564004021F86800F04EFB0346002B04D0FB6892
:105574002022DA67032305E0FB682022DA67002390
:1055840000E0022318462037BD4680BD80B483B0B6
:1055940000AF786000BF0C37BD465DF8047B7047F0
:1055A40080B483B000AF786000BF0C37BD465DF8AF
:1055B400047B704780B483B000AF786000BF0C37C1
:1055C400BD465DF8047B704780B588B000AF786055
:1055D4000023BB777B689A687B681B691A437B68E6
:1055E4005B691A437B68DB6913437B617B681B68D7
:1055F4001A68924B13407A68126879690B431360F6
:105604007B681B685B6823F440517B68DA687B68BD
:105614001B680A435A607B689B697B617B681B6AD1
:105624007A6913437B617B681B689B6823F4306150
:105634007B681B687A690A439A607B681B68804AA6
:10564400934220D17F4B1B6B03F00303032B17D82A
:1056540001A252F823F000BF6D56000879560008E5
:105664007F560008735600080123FB77B5E0022338
:10567400FB77B2E00423FB77AFE00823FB77ACE0D1
:105684001023FB77A9E07B681B686F4A934224D1FF
:105694006C4B1B6B03F44033B3F5403F11D0B3F5AF
:1056A400403F17D8B3F5003F11D0B3F5003F11D8F0
:1056B400002B03D0B3F5803F06D00BE00023FB772B
:1056C4008BE00223FB7788E00423FB7785E0082343
:1056D400FB7782E01023FB777FE07B681B685B4AE3
:1056E400934224D1574B1B6B03F44023B3F5402F53
:1056F40011D0B3F5402F17D8B3F5002F11D0B3F55F
:10570400002F11D8002B03D0B3F5802F06D00BE067
:105714000023FB7761E00223FB775EE00423FB7741
:105724005BE00823FB7758E01023FB7755E07B68A8
:105734001B68474A934224D1424B1B6B03F440132A
:10574400B3F5401F11D0B3F5401F17D8B3F5001FB0
:1057540011D0B3F5001F11D8002B03D0B3F5801F6F
:1057640006D00BE00023FB7737E00223FB7734E01D
:105774000423FB7731E00823FB772EE01023FB772B
:105784002BE07B681B68334A934224D12D4B1B6B5F
:1057940003F44003B3F5400F11D0B3F5400F17D80D
:1057A400B3F5000F11D0B3F5000F11D8002B03D0BF
:1057B400B3F5800F06D00BE00023FB770DE0022346
:1057C400FB770AE00423FB7707E00823FB7704E078
:1057D4001023FB7701E01023FB777B68DB69B3F5CB
:1057E400004F6BD1FB7F082B38D801A252F823F06D
:1057F4001958000821580008295800086158000861
:105804002F580008615800086158000861580008C2
:1058140037580008FFF780FBB86124E0FFF79EFBD0
:10582400B86120E00C4BBB611DE0FFF7FFFAB861E3
:1058340019E04FF40043BB6115E000BFF369FFEFCB
:10584400003801400010024000440040004800407D
:10585400004C00400050004000127A000023BB615D
:105864000123BB7700BFBB69002B73D0BB695A000F
:105874007B685B685B081A447B685B68B2FBF3F384
:105884003B613B690F2B16D93B69B3F5803F12D2BC
:105894003B699BB223F00F03FB813B695B089BB21E
:1058A40003F007039AB2FB891343FB817B681B68EF
:1058B400FA89DA604EE00123BB774BE0FB7F082BCB
:1058C40027D801A252F823F0F1580008F95800082B
:1058D400015900081759000807590008175900080A
:1058E40017590008175900080F590008FFF714FB4F
:1058F400B86113E0FFF732FBB8610FE01B4BBB61EB
:105904000CE0FFF793FAB86108E04FF40043BB6181
:1059140004E00023BB610123BB7700BFBB69002BFC
:1059240018D07B685B685A08BB691A447B685B685B
:10593400B2FBF3F33B613B690F2B09D93B69B3F528
:10594400803F05D23B699AB27B681B68DA6001E04C
:105954000123BB777B6800229A667B680022DA66A3
:10596400BB7F18462037BD4680BD00BF00127A00B9
:1059740080B483B000AF78607B685B6A03F0010396
:10598400002B0AD07B681B685B6823F400317B68BA
:105994009A6A7B681B680A435A607B685B6A03F0F7
:1059A4000203002B0AD07B681B685B6823F48031F8
:1059B4007B68DA6A7B681B680A435A607B685B6AA7
:1059C40003F00403002B0AD07B681B685B6823F494
:1059D40080217B681A6B7B681B680A435A607B686A
:1059E4005B6A03F00803002B0AD07B681B685B68C2
:1059F40023F400417B685A6B7B681B680A435A6036
:105A04007B685B6A03F01003002B0AD07B681B6879
:105A14009B6823F480517B689A6B7B681B680A43FC
:105A24009A607B685B6A03F02003002B0AD07B68D2
:105A34001B689B6823F400517B68DA6B7B681B68E6
:105A44000A439A607B685B6A03F04003002B1AD018
:105A54007B681B685B6823F480117B681A6C7B6825
:105A64001B680A435A607B681B6CB3F5801F0AD11C
:105A74007B681B685B6823F4C0017B685A6C7B6895
:105A84001B680A435A607B685B6A03F08003002B3F
:105A94000AD07B681B685B6823F400217B689A6CDE
:105AA4007B681B680A435A6000BF0C37BD465DF82B
:105AB400047B704780B598B002AF78607B680022A1
:105AC400C3F88420FBF7EAFF78657B681B681B68D2
